{
  "contractName": "SAFE_PAYMENT",
  "abi": [
    {
      "constant": true,
      "inputs": [
        {
          "name": "_orderID",
          "type": "uint256"
        }
      ],
      "name": "getCaption",
      "outputs": [
        {
          "name": "",
          "type": "string"
        }
      ],
      "payable": false,
      "stateMutability": "view",
      "type": "function"
    },
    {
      "constant": false,
      "inputs": [
        {
          "name": "_secondOwner",
          "type": "address"
        }
      ],
      "name": "SetSecondOwner",
      "outputs": [
        {
          "name": "",
          "type": "bool"
        }
      ],
      "payable": false,
      "stateMutability": "nonpayable",
      "type": "function"
    },
    {
      "constant": true,
      "inputs": [
        {
          "name": "_orderID",
          "type": "uint256"
        }
      ],
      "name": "getComment",
      "outputs": [
        {
          "name": "",
          "type": "string"
        }
      ],
      "payable": false,
      "stateMutability": "view",
      "type": "function"
    },
    {
      "constant": false,
      "inputs": [
        {
          "name": "_orderID",
          "type": "uint256"
        },
        {
          "name": "_value",
          "type": "uint256"
        }
      ],
      "name": "MakePayment",
      "outputs": [
        {
          "name": "",
          "type": "bool"
        }
      ],
      "payable": false,
      "stateMutability": "nonpayable",
      "type": "function"
    },
    {
      "constant": false,
      "inputs": [
        {
          "name": "_orderID",
          "type": "uint256"
        }
      ],
      "name": "CustomerMoneyBack",
      "outputs": [
        {
          "name": "",
          "type": "bool"
        }
      ],
      "payable": false,
      "stateMutability": "nonpayable",
      "type": "function"
    },
    {
      "constant": true,
      "inputs": [
        {
          "name": "_orderID",
          "type": "uint256"
        }
      ],
      "name": "getStateChangeDate",
      "outputs": [
        {
          "name": "",
          "type": "uint256"
        }
      ],
      "payable": false,
      "stateMutability": "view",
      "type": "function"
    },
    {
      "constant": false,
      "inputs": [
        {
          "name": "_orderID",
          "type": "uint256"
        }
      ],
      "name": "SetlockOwnerMoneyBack",
      "outputs": [
        {
          "name": "",
          "type": "bool"
        }
      ],
      "payable": false,
      "stateMutability": "nonpayable",
      "type": "function"
    },
    {
      "constant": true,
      "inputs": [
        {
          "name": "_orderID",
          "type": "uint256"
        }
      ],
      "name": "getResultContractABI",
      "outputs": [
        {
          "name": "",
          "type": "string"
        }
      ],
      "payable": false,
      "stateMutability": "view",
      "type": "function"
    },
    {
      "constant": true,
      "inputs": [],
      "name": "maxAllowedOpenOrdersPerCustomer",
      "outputs": [
        {
          "name": "",
          "type": "uint256"
        }
      ],
      "payable": false,
      "stateMutability": "view",
      "type": "function"
    },
    {
      "constant": false,
      "inputs": [
        {
          "name": "_orderID",
          "type": "uint256"
        }
      ],
      "name": "LockMoney",
      "outputs": [
        {
          "name": "",
          "type": "bool"
        }
      ],
      "payable": false,
      "stateMutability": "nonpayable",
      "type": "function"
    },
    {
      "constant": true,
      "inputs": [
        {
          "name": "_orderID",
          "type": "uint256"
        }
      ],
      "name": "getInvoice",
      "outputs": [
        {
          "name": "",
          "type": "uint256"
        }
      ],
      "payable": false,
      "stateMutability": "view",
      "type": "function"
    },
    {
      "constant": false,
      "inputs": [
        {
          "name": "_orderID",
          "type": "uint256"
        }
      ],
      "name": "WithdrowOrderMoneyForSecondOwner",
      "outputs": [
        {
          "name": "",
          "type": "bool"
        }
      ],
      "payable": false,
      "stateMutability": "nonpayable",
      "type": "function"
    },
    {
      "constant": false,
      "inputs": [
        {
          "name": "_orderID",
          "type": "uint256"
        }
      ],
      "name": "WithdrowOrderMoneyForOwner",
      "outputs": [
        {
          "name": "",
          "type": "bool"
        }
      ],
      "payable": false,
      "stateMutability": "nonpayable",
      "type": "function"
    },
    {
      "constant": true,
      "inputs": [
        {
          "name": "_orderID",
          "type": "uint256"
        }
      ],
      "name": "getDescription",
      "outputs": [
        {
          "name": "",
          "type": "string"
        }
      ],
      "payable": false,
      "stateMutability": "view",
      "type": "function"
    },
    {
      "constant": false,
      "inputs": [
        {
          "name": "_orderID",
          "type": "uint256"
        }
      ],
      "name": "UnlockMoney",
      "outputs": [
        {
          "name": "",
          "type": "bool"
        }
      ],
      "payable": false,
      "stateMutability": "nonpayable",
      "type": "function"
    },
    {
      "constant": false,
      "inputs": [
        {
          "name": "_orderID",
          "type": "uint256"
        },
        {
          "name": "_comment",
          "type": "string"
        }
      ],
      "name": "SetOrderComment",
      "outputs": [
        {
          "name": "",
          "type": "bool"
        }
      ],
      "payable": false,
      "stateMutability": "nonpayable",
      "type": "function"
    },
    {
      "constant": true,
      "inputs": [
        {
          "name": "_orderID",
          "type": "uint256"
        }
      ],
      "name": "getPaimentDate",
      "outputs": [
        {
          "name": "",
          "type": "uint256"
        }
      ],
      "payable": false,
      "stateMutability": "view",
      "type": "function"
    },
    {
      "constant": false,
      "inputs": [
        {
          "name": "_orderID",
          "type": "uint256"
        },
        {
          "name": "_resultContract",
          "type": "address"
        },
        {
          "name": "_resultContractABI",
          "type": "string"
        }
      ],
      "name": "SetUploadWorkAddress",
      "outputs": [
        {
          "name": "",
          "type": "bool"
        }
      ],
      "payable": false,
      "stateMutability": "nonpayable",
      "type": "function"
    },
    {
      "constant": false,
      "inputs": [
        {
          "name": "_orderID",
          "type": "uint256"
        },
        {
          "name": "_invoice",
          "type": "uint256"
        }
      ],
      "name": "SetInvoice",
      "outputs": [
        {
          "name": "",
          "type": "bool"
        }
      ],
      "payable": false,
      "stateMutability": "nonpayable",
      "type": "function"
    },
    {
      "constant": false,
      "inputs": [
        {
          "name": "_orderID",
          "type": "uint256"
        },
        {
          "name": "_secondAddress",
          "type": "address"
        }
      ],
      "name": "SetSecondAddress",
      "outputs": [
        {
          "name": "",
          "type": "bool"
        }
      ],
      "payable": false,
      "stateMutability": "nonpayable",
      "type": "function"
    },
    {
      "constant": true,
      "inputs": [
        {
          "name": "_orderID",
          "type": "uint256"
        }
      ],
      "name": "getCustomerPaid",
      "outputs": [
        {
          "name": "",
          "type": "uint256"
        }
      ],
      "payable": false,
      "stateMutability": "view",
      "type": "function"
    },
    {
      "constant": true,
      "inputs": [
        {
          "name": "_orderID",
          "type": "uint256"
        }
      ],
      "name": "getOrderState",
      "outputs": [
        {
          "name": "",
          "type": "uint256"
        }
      ],
      "payable": false,
      "stateMutability": "view",
      "type": "function"
    },
    {
      "constant": false,
      "inputs": [
        {
          "name": "_orderID",
          "type": "uint256"
        }
      ],
      "name": "CustomerMoneyBackSecondAddress",
      "outputs": [
        {
          "name": "",
          "type": "bool"
        }
      ],
      "payable": false,
      "stateMutability": "nonpayable",
      "type": "function"
    },
    {
      "constant": false,
      "inputs": [
        {
          "name": "_orderID",
          "type": "uint256"
        }
      ],
      "name": "WithdrowOwnerPaidForOwner",
      "outputs": [
        {
          "name": "",
          "type": "bool"
        }
      ],
      "payable": false,
      "stateMutability": "nonpayable",
      "type": "function"
    },
    {
      "constant": false,
      "inputs": [
        {
          "name": "_caption",
          "type": "string"
        },
        {
          "name": "_description",
          "type": "string"
        },
        {
          "name": "_comment",
          "type": "string"
        }
      ],
      "name": "CreateOrder",
      "outputs": [
        {
          "name": "_res",
          "type": "uint256"
        }
      ],
      "payable": false,
      "stateMutability": "nonpayable",
      "type": "function"
    },
    {
      "constant": true,
      "inputs": [
        {
          "name": "_customer",
          "type": "address"
        }
      ],
      "name": "GetMaxCustomerOrder",
      "outputs": [
        {
          "name": "",
          "type": "uint256"
        }
      ],
      "payable": false,
      "stateMutability": "view",
      "type": "function"
    },
    {
      "constant": false,
      "inputs": [
        {
          "name": "_orderID",
          "type": "uint256"
        }
      ],
      "name": "UnlockOwnerPrePaidMoney",
      "outputs": [
        {
          "name": "",
          "type": "bool"
        }
      ],
      "payable": false,
      "stateMutability": "nonpayable",
      "type": "function"
    },
    {
      "constant": false,
      "inputs": [
        {
          "name": "_orderID",
          "type": "uint256"
        }
      ],
      "name": "WithdrowOwnerPaidForSecondOwner",
      "outputs": [
        {
          "name": "",
          "type": "bool"
        }
      ],
      "payable": false,
      "stateMutability": "nonpayable",
      "type": "function"
    },
    {
      "constant": true,
      "inputs": [
        {
          "name": "_orderID",
          "type": "uint256"
        }
      ],
      "name": "getOwnerPaid",
      "outputs": [
        {
          "name": "",
          "type": "uint256"
        }
      ],
      "payable": false,
      "stateMutability": "view",
      "type": "function"
    },
    {
      "constant": true,
      "inputs": [
        {
          "name": "_orderID",
          "type": "uint256"
        }
      ],
      "name": "getLockOwnerMoneyBack",
      "outputs": [
        {
          "name": "",
          "type": "bool"
        }
      ],
      "payable": false,
      "stateMutability": "view",
      "type": "function"
    },
    {
      "constant": false,
      "inputs": [
        {
          "name": "_orderID",
          "type": "uint256"
        },
        {
          "name": "_resultContract",
          "type": "address"
        },
        {
          "name": "_resultContractABI",
          "type": "string"
        }
      ],
      "name": "UploadWork",
      "outputs": [
        {
          "name": "",
          "type": "bool"
        }
      ],
      "payable": false,
      "stateMutability": "nonpayable",
      "type": "function"
    },
    {
      "constant": false,
      "inputs": [
        {
          "name": "_orderID",
          "type": "uint256"
        },
        {
          "name": "_value",
          "type": "uint256"
        }
      ],
      "name": "SecurityDeposit",
      "outputs": [
        {
          "name": "",
          "type": "bool"
        }
      ],
      "payable": false,
      "stateMutability": "nonpayable",
      "type": "function"
    },
    {
      "constant": true,
      "inputs": [],
      "name": "GetMaxOrderID",
      "outputs": [
        {
          "name": "",
          "type": "uint256"
        }
      ],
      "payable": false,
      "stateMutability": "view",
      "type": "function"
    },
    {
      "constant": true,
      "inputs": [
        {
          "name": "_orderID",
          "type": "uint256"
        }
      ],
      "name": "getResultContract",
      "outputs": [
        {
          "name": "",
          "type": "address"
        }
      ],
      "payable": false,
      "stateMutability": "view",
      "type": "function"
    },
    {
      "constant": true,
      "inputs": [
        {
          "name": "_orderID",
          "type": "uint256"
        }
      ],
      "name": "getSecondAddress",
      "outputs": [
        {
          "name": "",
          "type": "address"
        }
      ],
      "payable": false,
      "stateMutability": "view",
      "type": "function"
    },
    {
      "constant": true,
      "inputs": [
        {
          "name": "_orderID",
          "type": "uint256"
        }
      ],
      "name": "getLockCustomerMoneyBack",
      "outputs": [
        {
          "name": "",
          "type": "bool"
        }
      ],
      "payable": false,
      "stateMutability": "view",
      "type": "function"
    },
    {
      "constant": true,
      "inputs": [],
      "name": "GetAllCustomersNum",
      "outputs": [
        {
          "name": "",
          "type": "uint256"
        }
      ],
      "payable": false,
      "stateMutability": "view",
      "type": "function"
    },
    {
      "inputs": [],
      "payable": false,
      "stateMutability": "nonpayable",
      "type": "constructor"
    },
    {
      "payable": true,
      "stateMutability": "payable",
      "type": "fallback"
    }
  ],
  "bytecode": "0x6060604052341561000f57600080fd5b336000806101000a81548173ffffffffffffffffffffffffffffffffffffffff021916908373ffffffffffffffffffffffffffffffffffffffff16021790555033600160006101000a81548173ffffffffffffffffffffffffffffffffffffffff021916908373ffffffffffffffffffffffffffffffffffffffff1602179055506000600681905550600a6007819055506133f9806100af6000396000f3006060604052600436106101cd576000357c0100000000000000000000000000000000000000000000000000000000900463ffffffff1680630257e249146101cf57806306cd24bd1461026b5780630800e300146102bc5780630aa3645b146103585780630b5b76881461039c5780630c3b127a146103d75780631ec6836b1461040e5780632b9d4b45146104495780632d2da943146104e55780633614ae9f1461050e5780633a23cc0a1461054957806346dfdada1461058057806346f6b7fe146105bb5780634925ec55146105f65780634cff942a146106925780635acb849f146106cd578063607ba9891461074b5780636969b561146107825780636f92f6df1461081f5780637356c099146108635780637393cc93146108bd578063810bd6af146108f457806386c7effd1461092b578063880954ff146109665780639379ec23146109a15780639b8b424e14610a98578063a72b591514610ae5578063bdff862714610b20578063be476be014610b5b578063c7726c1314610b92578063ce74446914610bcd578063d044c29014610c6a578063dd15718514610cae578063e0b8ed6414610cd7578063e0d13f0114610d3a578063eb51577014610d9d578063eb94200314610dd8575b005b34156101da57600080fd5b6101f06004808035906020019091905050610e01565b6040518080602001828103825283818151815260200191508051906020019080838360005b83811015610230578082015181840152602081019050610215565b50505050905090810190601f16801561025d5780820380516001836020036101000a031916815260200191505b509250505060405180910390f35b341561027657600080fd5b6102a2600480803573ffffffffffffffffffffffffffffffffffffffff16906020019091905050610ee4565b604051808215151515815260200191505060405180910390f35b34156102c757600080fd5b6102dd6004808035906020019091905050610fe3565b6040518080602001828103825283818151815260200191508051906020019080838360005b8381101561031d578082015181840152602081019050610302565b50505050905090810190601f16801561034a5780820380516001836020036101000a031916815260200191505b509250505060405180910390f35b341561036357600080fd5b61038260048080359060200190919080359060200190919050506110c6565b604051808215151515815260200191505060405180910390f35b34156103a757600080fd5b6103bd6004808035906020019091905050611187565b604051808215151515815260200191505060405180910390f35b34156103e257600080fd5b6103f86004808035906020019091905050611267565b6040518082815260200191505060405180910390f35b341561041957600080fd5b61042f60048080359060200190919050506112ac565b604051808215151515815260200191505060405180910390f35b341561045457600080fd5b61046a600480803590602001909190505061130b565b6040518080602001828103825283818151815260200191508051906020019080838360005b838110156104aa57808201518184015260208101905061048f565b50505050905090810190601f1680156104d75780820380516001836020036101000a031916815260200191505b509250505060405180910390f35b34156104f057600080fd5b6104f86113ee565b6040518082815260200191505060405180910390f35b341561051957600080fd5b61052f60048080359060200190919050506113f4565b604051808215151515815260200191505060405180910390f35b341561055457600080fd5b61056a6004808035906020019091905050611566565b6040518082815260200191505060405180910390f35b341561058b57600080fd5b6105a160048080359060200190919050506115ab565b604051808215151515815260200191505060405180910390f35b34156105c657600080fd5b6105dc600480803590602001909190505061171b565b604051808215151515815260200191505060405180910390f35b341561060157600080fd5b610617600480803590602001909190505061188b565b6040518080602001828103825283818151815260200191508051906020019080838360005b8381101561065757808201518184015260208101905061063c565b50505050905090810190601f1680156106845780820380516001836020036101000a031916815260200191505b509250505060405180910390f35b341561069d57600080fd5b6106b3600480803590602001909190505061196e565b604051808215151515815260200191505060405180910390f35b34156106d857600080fd5b610731600480803590602001909190803590602001908201803590602001908080601f01602080910402602001604051908101604052809392919081815260200183838082843782019150505050505091905050611b3b565b604051808215151515815260200191505060405180910390f35b341561075657600080fd5b61076c6004808035906020019091905050611b97565b6040518082815260200191505060405180910390f35b341561078d57600080fd5b610805600480803590602001909190803573ffffffffffffffffffffffffffffffffffffffff1690602001909190803590602001908201803590602001908080601f01602080910402602001604051908101604052809392919081815260200183838082843782019150505050505091905050611bdc565b604051808215151515815260200191505060405180910390f35b341561082a57600080fd5b6108496004808035906020019091908035906020019091905050611d2c565b604051808215151515815260200191505060405180910390f35b341561086e57600080fd5b6108a3600480803590602001909190803573ffffffffffffffffffffffffffffffffffffffff16906020019091905050611e3f565b604051808215151515815260200191505060405180910390f35b34156108c857600080fd5b6108de6004808035906020019091905050611ec5565b6040518082815260200191505060405180910390f35b34156108ff57600080fd5b6109156004808035906020019091905050611f0a565b6040518082815260200191505060405180910390f35b341561093657600080fd5b61094c6004808035906020019091905050611f4f565b604051808215151515815260200191505060405180910390f35b341561097157600080fd5b6109876004808035906020019091905050612068565b604051808215151515815260200191505060405180910390f35b34156109ac57600080fd5b610a82600480803590602001908201803590602001908080601f0160208091040260200160405190810160405280939291908181526020018383808284378201915050505050509190803590602001908201803590602001908080601f0160208091040260200160405190810160405280939291908181526020018383808284378201915050505050509190803590602001908201803590602001908080601f0160208091040260200160405190810160405280939291908181526020018383808284378201915050505050509190505061218c565b6040518082815260200191505060405180910390f35b3415610aa357600080fd5b610acf600480803573ffffffffffffffffffffffffffffffffffffffff16906020019091905050612574565b6040518082815260200191505060405180910390f35b3415610af057600080fd5b610b066004808035906020019091905050612670565b604051808215151515815260200191505060405180910390f35b3415610b2b57600080fd5b610b4160048080359060200190919050506126c6565b604051808215151515815260200191505060405180910390f35b3415610b6657600080fd5b610b7c60048080359060200190919050506127ea565b6040518082815260200191505060405180910390f35b3415610b9d57600080fd5b610bb3600480803590602001909190505061282f565b604051808215151515815260200191505060405180910390f35b3415610bd857600080fd5b610c50600480803590602001909190803573ffffffffffffffffffffffffffffffffffffffff1690602001909190803590602001908201803590602001908080601f01602080910402602001604051908101604052809392919081815260200183838082843782019150505050505091905050612881565b604051808215151515815260200191505060405180910390f35b3415610c7557600080fd5b610c946004808035906020019091908035906020019091905050612ae0565b604051808215151515815260200191505060405180910390f35b3415610cb957600080fd5b610cc1612bfc565b6040518082815260200191505060405180910390f35b3415610ce257600080fd5b610cf86004808035906020019091905050612cbc565b604051808273ffffffffffffffffffffffffffffffffffffffff1673ffffffffffffffffffffffffffffffffffffffff16815260200191505060405180910390f35b3415610d4557600080fd5b610d5b6004808035906020019091905050612d21565b604051808273ffffffffffffffffffffffffffffffffffffffff1673ffffffffffffffffffffffffffffffffffffffff16815260200191505060405180910390f35b3415610da857600080fd5b610dbe6004808035906020019091905050612d86565b604051808215151515815260200191505060405180910390f35b3415610de357600080fd5b610deb612dd8565b6040518082815260200191505060405180910390f35b610e09613152565b60011515610e1683612e95565b15151415610ede57600282815481101515610e2d57fe5b90600052602060002090600f02016005018054600181600116156101000203166002900480601f016020809104026020016040519081016040528092919081815260200182805460018160011615610100020316600290048015610ed25780601f10610ea757610100808354040283529160200191610ed2565b820191906000526020600020905b815481529060010190602001808311610eb557829003601f168201915b50505050509050610edf565b5b919050565b60008060009054906101000a900473ffffffffffffffffffffffffffffffffffffffff1673ffffffffffffffffffffffffffffffffffffffff163373ffffffffffffffffffffffffffffffffffffffff161480610f8e5750600160009054906101000a900473ffffffffffffffffffffffffffffffffffffffff1673ffffffffffffffffffffffffffffffffffffffff163373ffffffffffffffffffffffffffffffffffffffff16145b1515610f9957600080fd5b81600160006101000a81548173ffffffffffffffffffffffffffffffffffffffff021916908373ffffffffffffffffffffffffffffffffffffffff16021790555060019050919050565b610feb613152565b60011515610ff883612e95565b151514156110c05760028281548110151561100f57fe5b90600052602060002090600f02016007018054600181600116156101000203166002900480601f0160208091040260200160405190810160405280929190818152602001828054600181600116156101000203166002900480156110b45780601f10611089576101008083540402835291602001916110b4565b820191906000526020600020905b81548152906001019060200180831161109757829003601f168201915b505050505090506110c1565b5b919050565b6000600115156110d584613043565b1515141561118057816002848154811015156110ed57fe5b90600052602060002090600f0201600401540160028481548110151561110f57fe5b90600052602060002090600f02016004018190555060028381548110151561113357fe5b90600052602060002090600f02016002015460028481548110151561115457fe5b90600052602060002090600f020160040154111561117757611175836113f4565b505b60019050611181565b5b92915050565b6000806001151561119784613043565b1515141561126057600015156002848154811015156111b257fe5b90600052602060002090600f020160090160019054906101000a900460ff1615151415156111df57600080fd5b60006002848154811015156111f057fe5b90600052602060002090600f02016004015411151561120e57600080fd5b60028381548110151561121d57fe5b90600052602060002090600f0201600401549050600060028481548110151561124257fe5b90600052602060002090600f02016004018190555060019150611261565b5b50919050565b60006001151561127683612e95565b151514156112a65760028281548110151561128d57fe5b90600052602060002090600f0201600e015490506112a7565b5b919050565b6000600115156112bb83613043565b151514156113055760006002838154811015156112d457fe5b90600052602060002090600f020160090160006101000a81548160ff02191690831515021790555060019050611306565b5b919050565b611313613152565b6001151561132083612e95565b151514156113e85760028281548110151561133757fe5b90600052602060002090600f0201600d018054600181600116156101000203166002900480601f0160208091040260200160405190810160405280929190818152602001828054600181600116156101000203166002900480156113dc5780601f106113b1576101008083540402835291602001916113dc565b820191906000526020600020905b8154815290600101906020018083116113bf57829003601f168201915b505050505090506113e9565b5b919050565b60075481565b60006001151561140383613043565b151514156115605760028281548110151561141a57fe5b90600052602060002090600f02016002015460028381548110151561143b57fe5b90600052602060002090600f0201600401541015801561147b5750600060028381548110151561146757fe5b90600052602060002090600f020160020154115b151561148657600080fd5b600160028381548110151561149757fe5b90600052602060002090600f020160090160026101000a81548160ff02191690831515021790555060016002838154811015156114d057fe5b90600052602060002090600f020160090160006101000a81548160ff021916908315150217905550600160028381548110151561150957fe5b90600052602060002090600f020160090160016101000a81548160ff021916908315150217905550600160028381548110151561154257fe5b90600052602060002090600f0201600a018190555060019050611561565b5b919050565b60006001151561157583612e95565b151514156115a55760028281548110151561158c57fe5b90600052602060002090600f02016002015490506115a6565b5b919050565b60008060009054906101000a900473ffffffffffffffffffffffffffffffffffffffff1673ffffffffffffffffffffffffffffffffffffffff163373ffffffffffffffffffffffffffffffffffffffff1614806116555750600160009054906101000a900473ffffffffffffffffffffffffffffffffffffffff1673ffffffffffffffffffffffffffffffffffffffff163373ffffffffffffffffffffffffffffffffffffffff16145b151561166057600080fd5b6000151560028381548110151561167357fe5b90600052602060002090600f020160090160029054906101000a900460ff1615151415156116a057600080fd5b60006002838154811015156116b157fe5b90600052602060002090600f02016003018190555060006002838154811015156116d757fe5b90600052602060002090600f02016004018190555060046002838154811015156116fd57fe5b90600052602060002090600f0201600a018190555060019050919050565b60008060009054906101000a900473ffffffffffffffffffffffffffffffffffffffff1673ffffffffffffffffffffffffffffffffffffffff163373ffffffffffffffffffffffffffffffffffffffff1614806117c55750600160009054906101000a900473ffffffffffffffffffffffffffffffffffffffff1673ffffffffffffffffffffffffffffffffffffffff163373ffffffffffffffffffffffffffffffffffffffff16145b15156117d057600080fd5b600015156002838154811015156117e357fe5b90600052602060002090600f020160090160029054906101000a900460ff16151514151561181057600080fd5b600060028381548110151561182157fe5b90600052602060002090600f020160030181905550600060028381548110151561184757fe5b90600052602060002090600f020160040181905550600460028381548110151561186d57fe5b90600052602060002090600f0201600a018190555060019050919050565b611893613152565b600115156118a083612e95565b15151415611968576002828154811015156118b757fe5b90600052602060002090600f02016006018054600181600116156101000203166002900480601f01602080910402602001604051908101604052809291908181526020018280546001816001161561010002031660029004801561195c5780601f106119315761010080835404028352916020019161195c565b820191906000526020600020905b81548152906001019060200180831161193f57829003601f168201915b50505050509050611969565b5b919050565b60006001151561197d83613043565b15151415611b3557600060028381548110151561199657fe5b90600052602060002090600f020160090160026101000a81548160ff02191690831515021790555060006002838154811015156119cf57fe5b90600052602060002090600f020160090160006101000a81548160ff02191690831515021790555060011515611afd600284815481101515611a0d57fe5b90600052602060002090600f0201600c0160009054906101000a900473ffffffffffffffffffffffffffffffffffffffff16600285815481101515611a4e57fe5b90600052602060002090600f0201600d018054600181600116156101000203166002900480601f016020809104026020016040519081016040528092919081815260200182805460018160011615610100020316600290048015611af35780601f10611ac857610100808354040283529160200191611af3565b820191906000526020600020905b815481529060010190602001808311611ad657829003601f168201915b5050505050613142565b15151415611b34576004600283815481101515611b1657fe5b90600052602060002090600f0201600a018190555060019050611b36565b5b5b919050565b600060011515611b4a84612e95565b15151415611b905781600284815481101515611b6257fe5b90600052602060002090600f02016007019080519060200190611b86929190613166565b5060019050611b91565b5b92915050565b600060011515611ba683612e95565b15151415611bd657600282815481101515611bbd57fe5b90600052602060002090600f0201600801549050611bd7565b5b919050565b60008060009054906101000a900473ffffffffffffffffffffffffffffffffffffffff1673ffffffffffffffffffffffffffffffffffffffff163373ffffffffffffffffffffffffffffffffffffffff161480611c865750600160009054906101000a900473ffffffffffffffffffffffffffffffffffffffff1673ffffffffffffffffffffffffffffffffffffffff163373ffffffffffffffffffffffffffffffffffffffff16145b1515611c9157600080fd5b82600285815481101515611ca157fe5b90600052602060002090600f0201600c0160006101000a81548173ffffffffffffffffffffffffffffffffffffffff021916908373ffffffffffffffffffffffffffffffffffffffff16021790555081600285815481101515611d0057fe5b90600052602060002090600f0201600d019080519060200190611d24929190613166565b509392505050565b60008060009054906101000a900473ffffffffffffffffffffffffffffffffffffffff1673ffffffffffffffffffffffffffffffffffffffff163373ffffffffffffffffffffffffffffffffffffffff161480611dd65750600160009054906101000a900473ffffffffffffffffffffffffffffffffffffffff1673ffffffffffffffffffffffffffffffffffffffff163373ffffffffffffffffffffffffffffffffffffffff16145b1515611de157600080fd5b6000600284815481101515611df257fe5b90600052602060002090600f0201600a0154141515611e1057600080fd5b81600284815481101515611e2057fe5b90600052602060002090600f0201600201819055506001905092915050565b600060011515611e4e84613043565b15151415611ebe5781600284815481101515611e6657fe5b90600052602060002090600f0201600b0160006101000a81548173ffffffffffffffffffffffffffffffffffffffff021916908373ffffffffffffffffffffffffffffffffffffffff16021790555060019050611ebf565b5b92915050565b600060011515611ed483612e95565b15151415611f0457600282815481101515611eeb57fe5b90600052602060002090600f0201600401549050611f05565b5b919050565b600060011515611f1983612e95565b15151415611f4957600282815481101515611f3057fe5b90600052602060002090600f0201600a01549050611f4a565b5b919050565b60008060011515611f5f84613043565b151514156120615760001515600284815481101515611f7a57fe5b90600052602060002090600f020160090160019054906101000a900460ff161515141515611fa757600080fd5b6000600284815481101515611fb857fe5b90600052602060002090600f020160040154111515611fd657600080fd5b600283815481101515611fe557fe5b90600052602060002090600f0201600401549050600060028481548110151561200a57fe5b90600052602060002090600f020160090160006101000a81548160ff021916908315150217905550600060028481548110151561204357fe5b90600052602060002090600f02016004018190555060019150612062565b5b50919050565b60008060009054906101000a900473ffffffffffffffffffffffffffffffffffffffff1673ffffffffffffffffffffffffffffffffffffffff163373ffffffffffffffffffffffffffffffffffffffff1614806121125750600160009054906101000a900473ffffffffffffffffffffffffffffffffffffffff1673ffffffffffffffffffffffffffffffffffffffff163373ffffffffffffffffffffffffffffffffffffffff16145b151561211d57600080fd5b6000151560028381548110151561213057fe5b90600052602060002090600f020160090160009054906101000a900460ff16151514151561215d57600080fd5b600060028381548110151561216e57fe5b90600052602060002090600f02016003018190555060019050919050565b600080600754600460003373ffffffffffffffffffffffffffffffffffffffff1673ffffffffffffffffffffffffffffffffffffffff168152602001908152602001600020541015156121e5576000915081915061256c565b60028054905090506000600460003373ffffffffffffffffffffffffffffffffffffffff1673ffffffffffffffffffffffffffffffffffffffff1681526020019081526020016000205414156122475760016006600082825401925050819055505b600160028181805490500191508161225f91906131e6565b50600460003373ffffffffffffffffffffffffffffffffffffffff1673ffffffffffffffffffffffffffffffffffffffff168152602001908152602001600020546002828154811015156122af57fe5b90600052602060002090600f0201600001819055506001600460003373ffffffffffffffffffffffffffffffffffffffff1673ffffffffffffffffffffffffffffffffffffffff168152602001908152602001600020600082825401925050819055503360028281548110151561232257fe5b90600052602060002090600f020160010160006101000a81548173ffffffffffffffffffffffffffffffffffffffff021916908373ffffffffffffffffffffffffffffffffffffffff1602179055503360028281548110151561238157fe5b90600052602060002090600f0201600b0160006101000a81548173ffffffffffffffffffffffffffffffffffffffff021916908373ffffffffffffffffffffffffffffffffffffffff160217905550846002828154811015156123e057fe5b90600052602060002090600f02016005019080519060200190612404929190613166565b508360028281548110151561241557fe5b90600052602060002090600f02016006019080519060200190612439929190613166565b508260028281548110151561244a57fe5b90600052602060002090600f0201600701908051906020019061246e929190613166565b50600060028281548110151561248057fe5b90600052602060002090600f0201600a0181905550426002828154811015156124a557fe5b90600052602060002090600f0201600e018190555060006002828154811015156124cb57fe5b90600052602060002090600f020160090160006101000a81548160ff021916908315150217905550600060028281548110151561250457fe5b90600052602060002090600f020160090160016101000a81548160ff021916908315150217905550600060028281548110151561253d57fe5b90600052602060002090600f020160090160026101000a81548160ff0219169083151502179055508091508191505b509392505050565b60008060009054906101000a900473ffffffffffffffffffffffffffffffffffffffff1673ffffffffffffffffffffffffffffffffffffffff163373ffffffffffffffffffffffffffffffffffffffff16148061261e5750600160009054906101000a900473ffffffffffffffffffffffffffffffffffffffff1673ffffffffffffffffffffffffffffffffffffffff163373ffffffffffffffffffffffffffffffffffffffff16145b151561262957600080fd5b600460008373ffffffffffffffffffffffffffffffffffffffff1673ffffffffffffffffffffffffffffffffffffffff168152602001908152602001600020549050919050565b60006001151561267f83613043565b151514156126c157600060028381548110151561269857fe5b90600052602060002090600f020160090160006101000a81548160ff0219169083151502179055505b919050565b60008060009054906101000a900473ffffffffffffffffffffffffffffffffffffffff1673ffffffffffffffffffffffffffffffffffffffff163373ffffffffffffffffffffffffffffffffffffffff1614806127705750600160009054906101000a900473ffffffffffffffffffffffffffffffffffffffff1673ffffffffffffffffffffffffffffffffffffffff163373ffffffffffffffffffffffffffffffffffffffff16145b151561277b57600080fd5b6000151560028381548110151561278e57fe5b90600052602060002090600f020160090160009054906101000a900460ff1615151415156127bb57600080fd5b60006002838154811015156127cc57fe5b90600052602060002090600f02016003018190555060019050919050565b6000600115156127f983612e95565b151514156128295760028281548110151561281057fe5b90600052602060002090600f020160030154905061282a565b5b919050565b60006001151561283e83612e95565b1515141561287b5760028281548110151561285557fe5b90600052602060002090600f020160090160009054906101000a900460ff16905061287c565b5b919050565b60008060009054906101000a900473ffffffffffffffffffffffffffffffffffffffff1673ffffffffffffffffffffffffffffffffffffffff163373ffffffffffffffffffffffffffffffffffffffff16148061292b5750600160009054906101000a900473ffffffffffffffffffffffffffffffffffffffff1673ffffffffffffffffffffffffffffffffffffffff163373ffffffffffffffffffffffffffffffffffffffff16145b151561293657600080fd5b60011515612944848461314a565b1515148015612993575060028481548110151561295d57fe5b90600052602060002090600f02016002015460028581548110151561297e57fe5b90600052602060002090600f02016004015410155b80156129bf575060006002858154811015156129ab57fe5b90600052602060002090600f020160020154115b80156129eb575060046002858154811015156129d757fe5b90600052602060002090600f0201600a0154105b15612ad8576003600285815481101515612a0157fe5b90600052602060002090600f0201600a018190555082600285815481101515612a2657fe5b90600052602060002090600f0201600c0160006101000a81548173ffffffffffffffffffffffffffffffffffffffff021916908373ffffffffffffffffffffffffffffffffffffffff16021790555081600285815481101515612a8557fe5b90600052602060002090600f0201600d019080519060200190612aa9929190613166565b5042600285815481101515612aba57fe5b90600052602060002090600f0201600e018190555060019050612ad9565b5b9392505050565b60008060009054906101000a900473ffffffffffffffffffffffffffffffffffffffff1673ffffffffffffffffffffffffffffffffffffffff163373ffffffffffffffffffffffffffffffffffffffff161480612b8a5750600160009054906101000a900473ffffffffffffffffffffffffffffffffffffffff1673ffffffffffffffffffffffffffffffffffffffff163373ffffffffffffffffffffffffffffffffffffffff16145b1515612b9557600080fd5b6000600284815481101515612ba657fe5b90600052602060002090600f0201600a0154141515612bc457600080fd5b81600284815481101515612bd457fe5b90600052602060002090600f0201600301600082825401925050819055506001905092915050565b60008060009054906101000a900473ffffffffffffffffffffffffffffffffffffffff1673ffffffffffffffffffffffffffffffffffffffff163373ffffffffffffffffffffffffffffffffffffffff161480612ca65750600160009054906101000a900473ffffffffffffffffffffffffffffffffffffffff1673ffffffffffffffffffffffffffffffffffffffff163373ffffffffffffffffffffffffffffffffffffffff16145b1515612cb157600080fd5b600280549050905090565b600060011515612ccb83612e95565b15151415612d1b57600282815481101515612ce257fe5b90600052602060002090600f0201600c0160009054906101000a900473ffffffffffffffffffffffffffffffffffffffff169050612d1c565b5b919050565b600060011515612d3083612e95565b15151415612d8057600282815481101515612d4757fe5b90600052602060002090600f0201600b0160009054906101000a900473ffffffffffffffffffffffffffffffffffffffff169050612d81565b5b919050565b600060011515612d9583612e95565b15151415612dd257600282815481101515612dac57fe5b90600052602060002090600f020160090160019054906101000a900460ff169050612dd3565b5b919050565b60008060009054906101000a900473ffffffffffffffffffffffffffffffffffffffff1673ffffffffffffffffffffffffffffffffffffffff163373ffffffffffffffffffffffffffffffffffffffff161480612e825750600160009054906101000a900473ffffffffffffffffffffffffffffffffffffffff1673ffffffffffffffffffffffffffffffffffffffff163373ffffffffffffffffffffffffffffffffffffffff16145b1515612e8d57600080fd5b600654905090565b60008060009054906101000a900473ffffffffffffffffffffffffffffffffffffffff1673ffffffffffffffffffffffffffffffffffffffff163373ffffffffffffffffffffffffffffffffffffffff161480612f3f5750600160009054906101000a900473ffffffffffffffffffffffffffffffffffffffff1673ffffffffffffffffffffffffffffffffffffffff163373ffffffffffffffffffffffffffffffffffffffff16145b80612fb55750600282815481101515612f5457fe5b90600052602060002090600f020160010160009054906101000a900473ffffffffffffffffffffffffffffffffffffffff1673ffffffffffffffffffffffffffffffffffffffff163373ffffffffffffffffffffffffffffffffffffffff16145b8061302b5750600282815481101515612fca57fe5b90600052602060002090600f0201600b0160009054906101000a900473ffffffffffffffffffffffffffffffffffffffff1673ffffffffffffffffffffffffffffffffffffffff163373ffffffffffffffffffffffffffffffffffffffff16145b15613039576001905061303e565b600090505b919050565b600060028281548110151561305457fe5b90600052602060002090600f020160010160009054906101000a900473ffffffffffffffffffffffffffffffffffffffff1673ffffffffffffffffffffffffffffffffffffffff163373ffffffffffffffffffffffffffffffffffffffff16148061312a57506002828154811015156130c957fe5b90600052602060002090600f0201600b0160009054906101000a900473ffffffffffffffffffffffffffffffffffffffff1673ffffffffffffffffffffffffffffffffffffffff163373ffffffffffffffffffffffffffffffffffffffff16145b15613138576001905061313d565b600090505b919050565b600092915050565b600092915050565b602060405190810160405280600081525090565b828054600181600116156101000203166002900490600052602060002090601f016020900481019282601f106131a757805160ff19168380011785556131d5565b828001600101855582156131d5579182015b828111156131d45782518255916020019190600101906131b9565b5b5090506131e29190613218565b5090565b81548183558181151161321357600f0281600f028360005260206000209182019101613212919061323d565b5b505050565b61323a91905b8082111561323657600081600090555060010161321e565b5090565b90565b61338291905b8082111561337e576000808201600090556001820160006101000a81549073ffffffffffffffffffffffffffffffffffffffff02191690556002820160009055600382016000905560048201600090556005820160006132a39190613385565b6006820160006132b39190613385565b6007820160006132c39190613385565b60088201600090556009820160006101000a81549060ff02191690556009820160016101000a81549060ff02191690556009820160026101000a81549060ff0219169055600a820160009055600b820160006101000a81549073ffffffffffffffffffffffffffffffffffffffff0219169055600c820160006101000a81549073ffffffffffffffffffffffffffffffffffffffff0219169055600d8201600061336d9190613385565b600e82016000905550600f01613243565b5090565b90565b50805460018160011615610100020316600290046000825580601f106133ab57506133ca565b601f0160209004906000526020600020908101906133c99190613218565b5b505600a165627a7a72305820d7598baa2594dcf26f1e4f7cf383101eb2e903f50168e080641333c2628b16d00029",
  "source": "/* *************************************************************\r\n***Smart Contract for save deals between worker & customer******\r\n***blockchain-concept.com***********ru.blockchain-concept.com***\r\n************************************************************* */\r\npragma solidity ^0.4.0;\r\ncontract SAFE_PAYMENT{\r\n//-----------------data section-------------------------------------------------\r\n    address owner;\r\n    address secondOwner;\r\n    struct order{\r\n        uint orderID;                       // customer's internal order id\r\n        address customerAddress;            // main address of the customer\r\n        uint invoice;                       // payment for work\r\n        uint ownerPaid;                     // owner payed value (insuranse payment)\r\n        uint customerPaid;                  // payed value (must be more then ownerPaid)\r\n        string caption;                     // order's title from contract owner\r\n        string description;                 // order's description from contract owner\r\n        string comment;                     // comment from customer\r\n        uint paimentDate;                   // last payment date\r\n        bool lockOwnerMoneyBack;            // unlock (0 -unlock; 1 - lock) ownerPaid money to contract owner \r\n        bool lockCustomerMoneyBack;         // unlock (0 -unlock; 1 - lock) money back to customer\r\n        bool lockMoney;                     // unlock (0 -unlock; 1 - lock) money from contract to contract owner\r\n        uint orderState;                    // 0-new, 1-payed 2-in progress, 3-ready 4-finished 7-owner took money (if >=4 it is impossible for customer to lock money by paying) 5-canceled\r\n        address secondAddress;              // additional address for customer\r\n        address resultContract;             // work result smart contract address for deleting controll owner (set only customer's addresses to owners)\r\n        string resultContractABI;           // ABI interface for work result smart contract \r\n        uint stateChangeDate;               // last state change date\r\n    }\r\n    order[] orders;\r\n    mapping (address => uint) paymentsNoOrder;      // array of all customer's payments without order's links\r\n    mapping (address => uint) customerOrdersNum;    // array of customer's orders number\r\n    mapping (address => uint) freeBalances;         // array of users deposit. Everyone can pay for this contract address and then take their money back\r\n    uint allCustomersNum;                           // customers amount\r\n    uint public maxAllowedOpenOrdersPerCustomer;    // limit from spam orders creating    \r\n\r\n//-----------------modificators-------------------------------------------------\r\n// for owner check\r\n    modifier _isOwner{\r\n        require (msg.sender == owner || msg.sender == secondOwner);\r\n        _;\r\n    }\r\n//-----------------implementation-----------------------------------------------\r\n//------------------------------------------------------------------------------\r\n/*-----------------------common part------------------------*/\r\n//constructor\r\nfunction SAFE_PAYMENT(){\r\n    owner = msg.sender;\r\n    secondOwner = msg.sender;\r\n    allCustomersNum = 0;\r\n    maxAllowedOpenOrdersPerCustomer = 10;\r\n}\r\n//check order's access permission for owner and customer by its id\r\nfunction isOwnCust(uint _orderID) private returns(bool){\r\n    if (msg.sender == owner || msg.sender == secondOwner || msg.sender == orders[_orderID].customerAddress || msg.sender == orders[_orderID].secondAddress)\r\n        return true;\r\n    else\r\n        return false;\r\n}\r\n//check order's access permission for its customer by order id\r\nfunction isCustomer(uint _orderID) private returns(bool){\r\n    if (msg.sender == orders[_orderID].customerAddress || msg.sender == orders[_orderID].secondAddress)\r\n        return true;\r\n    else\r\n        return false;\r\n}\r\n//check for prepared wor customer contract exist\r\nfunction CheckContractExist(address _resultContract, string _resultContractABI) private returns(bool){\r\n//     , ,        \r\n}\r\n\r\nfunction RemoveResContractOwners(address _resultContract, string _resultContractABI) private returns(bool){\r\n//             \r\n}\r\n\r\n/*-----------------------for customer------------------------*/\r\n// 1. create order\r\nfunction CreateOrder(string _caption, string _description, string _comment) returns(uint _res){\r\n    uint globalOrderID;\r\n    if (customerOrdersNum[msg.sender] >=maxAllowedOpenOrdersPerCustomer){\r\n        _res=0;\r\n        return _res;\r\n    }else{\r\n        globalOrderID = orders.length;\r\n        if(customerOrdersNum[msg.sender]==0){\r\n            allCustomersNum +=1;                                                // customers amount\r\n        }\r\n        orders.length+=1;        \r\n        orders[globalOrderID].orderID = customerOrdersNum[msg.sender];          // customer's internal order id\r\n        customerOrdersNum[msg.sender] +=1;                                      // customer's orders number\r\n        orders[globalOrderID].customerAddress = msg.sender;                     // additional address for customer\r\n        orders[globalOrderID].secondAddress = msg.sender;                       // work result smart contract address for deleting controll owner (set only customer's addresses to owners)\r\n        orders[globalOrderID].caption=_caption;                                 // order's title from contract owner\r\n        orders[globalOrderID].description=_description;                         // order's description from contract owner\r\n        orders[globalOrderID].comment=_comment;                                 // comment from customer\r\n        orders[globalOrderID].orderState = 0;                                   // 0-new, 1-payed 2-in progress, 3-ready 4-finished (if >=4 it is impossible for customer to lock money by paying) 5-canceled\r\n        orders[globalOrderID].stateChangeDate=now;                              // last state change date\r\n        orders[globalOrderID].lockOwnerMoneyBack = false;                       // unlock(=0) ownerPaid money to contract owner \r\n        orders[globalOrderID].lockCustomerMoneyBack = false;                    // unlock(=0) money back to customer\r\n        orders[globalOrderID].lockMoney = false;                                // unlock(=0) money from contract to contract owner    \r\n       _res = globalOrderID;\r\n       return _res;\r\n    }\r\n}\r\nfunction SetSecondAddress(uint _orderID, address _secondAddress)returns(bool){if(isCustomer(_orderID)==true){orders[_orderID].secondAddress = _secondAddress; return true;}} // 1. Customer can change second manager address for his order\r\nfunction SetlockOwnerMoneyBack(uint _orderID) returns(bool){if(isCustomer(_orderID)==true){orders[_orderID].lockOwnerMoneyBack = false;return true;}} // 1. unlock security deposit for contract owner\r\nfunction UnlockMoney(uint _orderID) returns(bool){if(isCustomer(_orderID)==true){orders[_orderID].lockMoney = false;orders[_orderID].lockOwnerMoneyBack = false;if(RemoveResContractOwners(orders[_orderID].resultContract, orders[_orderID].resultContractABI) == true){orders[_orderID].orderState = 4;return true;}}}// 1. unlock payment for work for contract owner\r\nfunction UnlockOwnerPrePaidMoney(uint _orderID) returns(bool){if(isCustomer(_orderID)==true){orders[_orderID].lockOwnerMoneyBack = false;}}// 1. unlock owner security payment for work for contract owner\r\n// Make Payment for future work. That is possible to pay as many times, as it is need. Auto lock Money after ncreasing invoice.\r\nfunction MakePayment(uint _orderID, uint _value) returns(bool){\r\n    if(isCustomer(_orderID)==true){\r\n//     \r\n        orders[_orderID].customerPaid = orders[_orderID].customerPaid + _value;\r\n        if (orders[_orderID].customerPaid > orders[_orderID].invoice){\r\n            LockMoney(_orderID);\r\n        }\r\n        return true;\r\n    }\r\n}\r\n// Customer must paid value equal or more then it was set in invoice by owner\r\nfunction LockMoney(uint _orderID) returns(bool){\r\n    if(isCustomer(_orderID)==true){\r\n        require(orders[_orderID].customerPaid >= orders[_orderID].invoice && orders[_orderID].invoice > 0);\r\n        orders[_orderID].lockMoney = true;\r\n        orders[_orderID].lockOwnerMoneyBack = true;\r\n        orders[_orderID].lockCustomerMoneyBack = true;\r\n        orders[_orderID].orderState = 1;\r\n        return true;\r\n    }\r\n}\r\n// Customer can take money back untill the order is not in work\r\nfunction CustomerMoneyBack(uint _orderID) returns(bool){\r\n    uint valueForPaid;\r\n    if(isCustomer(_orderID)==true){\r\n        require (orders[_orderID].lockCustomerMoneyBack == false);\r\n        require (orders[_orderID].customerPaid > 0);\r\n        valueForPaid = orders[_orderID].customerPaid;\r\n        orders[_orderID].customerPaid = 0;\r\n//    ( valueForPaid)      \r\n        return true;\r\n    }\r\n}\r\nfunction CustomerMoneyBackSecondAddress(uint _orderID) returns(bool){\r\n    uint valueForPaid;\r\n    if(isCustomer(_orderID)==true){\r\n        require (orders[_orderID].lockCustomerMoneyBack == false);\r\n        require (orders[_orderID].customerPaid > 0);\r\n        valueForPaid = orders[_orderID].customerPaid;\r\n        orders[_orderID].lockOwnerMoneyBack = false;\r\n        orders[_orderID].customerPaid = 0;\r\n//    ( valueForPaid)      \r\n        return true;\r\n    }\r\n}\r\n\r\n\r\n/*-----------------------for customer AND owner--------------*/\r\nfunction SetOrderComment(uint _orderID, string _comment) returns(bool){if (isOwnCust(_orderID) == true){orders[_orderID].comment = _comment;return true;}}// 1. change order's comment\r\nfunction getInvoice(uint _orderID) constant returns (uint){if (isOwnCust(_orderID) == true){return orders[_orderID].invoice;}}\r\nfunction getOwnerPaid(uint _orderID) constant returns (uint){if (isOwnCust(_orderID) == true){return orders[_orderID].ownerPaid;}}\r\nfunction getCustomerPaid(uint _orderID) constant returns (uint){if (isOwnCust(_orderID) == true){return orders[_orderID].customerPaid;}}\r\nfunction getCaption(uint _orderID) constant returns (string){if (isOwnCust(_orderID) == true){return orders[_orderID].caption;}}\r\nfunction getDescription(uint _orderID) constant returns (string){if (isOwnCust(_orderID) == true){return orders[_orderID].description;}}\r\nfunction getComment(uint _orderID) constant returns (string){if (isOwnCust(_orderID) == true){return orders[_orderID].comment;}}\r\nfunction getPaimentDate(uint _orderID) constant returns (uint){if (isOwnCust(_orderID) == true){return orders[_orderID].paimentDate;}}\r\nfunction getLockOwnerMoneyBack(uint _orderID) constant returns (bool){if (isOwnCust(_orderID) == true){return orders[_orderID].lockOwnerMoneyBack;}}\r\nfunction getLockCustomerMoneyBack(uint _orderID) constant returns (bool){if (isOwnCust(_orderID) == true){return orders[_orderID].lockCustomerMoneyBack;}}\r\nfunction getOrderState(uint _orderID) constant returns (uint){if (isOwnCust(_orderID) == true){return orders[_orderID].orderState;}}\r\nfunction getSecondAddress(uint _orderID) constant returns (address){if (isOwnCust(_orderID) == true){return orders[_orderID].secondAddress;}}\r\nfunction getResultContract(uint _orderID) constant returns (address){if (isOwnCust(_orderID) == true){return orders[_orderID].resultContract;}}\r\nfunction getResultContractABI(uint _orderID) constant returns (string){if (isOwnCust(_orderID) == true){return orders[_orderID].resultContractABI;}}\r\nfunction getStateChangeDate(uint _orderID) constant returns (uint){if (isOwnCust(_orderID) == true){return orders[_orderID].stateChangeDate;}}\r\n\r\n\r\n\r\n/*-----------------------for owner---------------------------*/\r\nfunction UploadWork(uint _orderID, address _resultContract, string _resultContractABI) _isOwner returns(bool){\r\n    if (CheckContractExist(_resultContract, _resultContractABI) == true \r\n    && orders[_orderID].customerPaid >= orders[_orderID].invoice \r\n    && orders[_orderID].invoice > 0\r\n    && orders[_orderID].orderState < 4){\r\n        orders[_orderID].orderState = 3;                                // 0-new, 1-payed 2-in progress, 3-ready 4-finished (if >=4 it is impossible for customer to lock money by paying) 5-canceled\r\n        orders[_orderID].resultContract = _resultContract;              // work result smart contract address for deleting controll owner (set only customer's addresses to owners)\r\n        orders[_orderID].resultContractABI = _resultContractABI;        // ABI interface for work result smart contract \r\n        orders[_orderID].stateChangeDate = now;                         // last state change date\r\n        return true;\r\n    }\r\n}\r\nfunction SetUploadWorkAddress(uint _orderID, address _resultContract, string _resultContractABI) _isOwner returns(bool){orders[_orderID].resultContract = _resultContract;orders[_orderID].resultContractABI = _resultContractABI;}//Write address and ABI for work result main smart contract\r\nfunction SetSecondOwner(address _secondOwner) _isOwner returns(bool){secondOwner = _secondOwner;return true;}\r\nfunction GetMaxOrderID() constant _isOwner returns(uint){return orders.length;} // reading orders amount (and last order number)\r\nfunction GetMaxCustomerOrder(address _customer) constant _isOwner returns(uint){return customerOrdersNum[_customer];} // reading customer orders amount\r\nfunction GetAllCustomersNum() constant _isOwner returns(uint){return allCustomersNum;} // reading all customers amount\r\n\r\n\r\n\r\n/*-----------------------for owner(work with money)----------*/\r\n// 1a. set invoice\r\nfunction SetInvoice(uint _orderID, uint _invoice) _isOwner returns(bool){\r\n    require (orders[_orderID].orderState == 0);\r\n    orders[_orderID].invoice = _invoice;\r\n    return true;\r\n}\r\n// 1b. make security deposit\r\nfunction SecurityDeposit(uint _orderID, uint _value) _isOwner returns(bool){\r\n    require (orders[_orderID].orderState == 0);\r\n//     (       ,      )\r\n     orders[_orderID].ownerPaid += _value;\r\n    return true;\r\n}\r\n//7. withdraw all money from order o owner\r\nfunction WithdrowOrderMoneyForOwner(uint _orderID) _isOwner returns(bool){\r\n    require (orders[_orderID].lockMoney == false);\r\n//       owner\r\n     orders[_orderID].ownerPaid = 0;\r\n     orders[_orderID].customerPaid = 0;\r\n     orders[_orderID].orderState = 4;\r\n    return true;\r\n}\r\n//7. withdraw all money from order o second owner address\r\nfunction WithdrowOrderMoneyForSecondOwner(uint _orderID) _isOwner returns(bool){\r\n    require (orders[_orderID].lockMoney == false);\r\n//       secondOwner\r\n     orders[_orderID].ownerPaid = 0;\r\n     orders[_orderID].customerPaid = 0;\r\n     orders[_orderID].orderState = 4;\r\n    return true;\r\n}\r\n//7. withdraw only SecurityDeposit money from order o owner\r\nfunction WithdrowOwnerPaidForOwner(uint _orderID) _isOwner returns(bool){\r\n    require (orders[_orderID].lockOwnerMoneyBack == false);\r\n//        owner\r\n     orders[_orderID].ownerPaid = 0;\r\n    return true;\r\n}\r\n//7. withdraw only SecurityDeposit money from order o second owner address\r\nfunction WithdrowOwnerPaidForSecondOwner(uint _orderID) _isOwner returns(bool){\r\n    require (orders[_orderID].lockOwnerMoneyBack == false);\r\n//        secondOwner\r\n     orders[_orderID].ownerPaid = 0;\r\n    return true;\r\n}\r\n\r\n\r\n\r\n\r\n//for payments receiving\r\nfunction () payable {\r\n    //call your function here / implement your actions\r\n    //msg.value -  \r\n  }\r\n//for paying\r\nfunction SendEtherToOwner(uint256 _amount) _isOwner private returns(bool){\r\n    //owner.transfer(_amount); -    \r\n}\r\n\r\n}\r\n\r\n//get+ paid   uint customerPaid;                  // payed value (must be more then ownerPaid)\r\n//get+ set+-  bool lockMoney;                     // unlock (0 -unlock; 1 - lock) money from contract to contract owner\r\n/*\r\n :\r\n1.    \r\n     \r\n       ,  \r\n      \r\n          \r\n            \r\n2.    \r\n     \r\n          \r\n       ,  \r\n3.    \r\n     \r\n       ,  \r\n       \r\n     7\r\n*/\r\n\r\n/*\r\n:\r\n1.+        .       .  id    .     .\r\n-a.+    \r\n-b.+-     ()    (     )\r\n-c.    (   )  ,        \r\n2.+-      (      ),     ( ),        \r\n3.+-        ,     ResultContract   = 3-ready\r\n4.+-   ,       2      .        ( = 4-finished)\r\n:\r\n\r\n5.     ( = 5-canceled),      ()  ,     (       ).    .\r\n6.+         : resultContract  resultContractABI;  \r\n7.+-     (     ),     (    ,      )\r\n-a.+-       \r\n8.+-     ,    ,      \r\n9.+        \r\n10.+       \r\n11.+       \r\n12.+      ,        .\r\n13.+     \r\n14.   \r\n15.          ,          . ..           .\r\n*/",
  "sourcePath": "C:\\#PROJECTS\\5 - orders\\contracts\\SAFE_PAYMENT.sol",
  "compiler": {
    "name": "solc",
    "version": "0.4.18+commit.9cf6e910.Emscripten.clang"
  },
  "schemaVersion": "1.0.1",
  "updatedAt": "2018-01-19T16:04:07.008Z"
}